:020000040800F2
:10000000386F0124010400080304000803040008F9
:1000100003040008030400080304000803040008A4
:100020000304000803040008030400080304000894
:10003000030400080304000803040008C1EF0008DB
:100040000304000803040008030400080304000874
:10005000030400080304000871420008F14200088C
:100060008143000811440008A144000801CD0008A4
:1000700011CD000821CD000831CD000841CD000888
:1000800051CD000861CD000871CD0008F15600087F
:100090004157000803040008030400080304000893
:1000A000D1F1000811550008E1F10008F1F1000854
:1000B000B155000851560008A15600080304000875
:1000C000030400080304000803040008B1E2000868
:1000D000C1E20008718B0008218C0008D18C000857
:1000E00031450008C14700080304000801F2000878
:1000F0006155000811F2000821F2000801560008BD
:1001000091570008E157000871F70008D1E2000894
:10011000E1E20008030400080304000803040008E7
:1001200081CD000891CD0008A1CD0008B1CD000817
:10013000C1CD0008D1CD0008E1CD0008F1CD000807
:1001400003040008030400080304000821ED00086C
:1001500041ED000861ED000881ED0008A1ED000807
:10016000C1ED0008E1ED0008F1ED0008030400080E
:100170000304000803040008030400080304000843
:100180000304000803040008030400080304000833
:1001900021DD000841DD000861DD000871DD000897
:1001A00091DD0008B1DD0008C1DD0008E1DD0008D7
:1001B00001DE000811DE000831DE000851DE000813
:1001C000F1CE00080304000803040008030400083B
:1001D00003040008030400080304000803040008E3
:1001E00011EE000831EE000851EE000871EE000833
:1001F00091EE0008B1EE0008D1EE0008E1EE000833
:1002000003040008030400080304000803040008B2
:1002100003040008030400080304000803040008A2
:100220000304000803040008030400080304000892
:100230000304000803040008030400080304000882
:100240000304000803040008030400080304000872
:100250000304000803040008030400080304000862
:1002600003040008F1D3000801D4000811D40008E9
:1002700021D4000831D40008030400080304000856
:100280000304000803040008030400080304000832
:100290000304000803040008030400080304000822
:1002A0000304000803040008030400080304000812
:1002B0000304000803040008030400080304000802
:1002C00003040008030400080304000803040008F2
:1002D00003040008030400080304000803040008E2
:1002E00003040008030400080304000803040008D2
:1002F00003040008030400080304000803040008C2
:1003000000000000000000000000000000000000ED
:1003100000000000000000000000000000000000DD
:1003200000000000000000000000000000000000CD
:1003300000000000000000000000000000000000BD
:1003400000000000000000000000000000000000AD
:10035000000000000000000000000000000000009D
:10036000000000000000000000000000000000008D
:10037000000000000000000000000000000000007D
:10038000000000000000000000000000000000006D
:10039000000000000000000000000000000000005D
:1003A000000000000000000000000000000000004D
:1003B000000000000000000000000000000000003D
:1003C000000000000000000000000000000000002D
:1003D000000000000000000000000000000000001D
:1003E000000000000000000000000000000000000D
:1003F00000000000000000000000000000000000FD
:080400001EE000F000F8FEE729
:1004400000200021444A454BE2E802019A42FBDBCE
:100450004349444A00240025E1E802459142FBDB80
:10046000414A002A08D041483D498B18F0E802452E
:10047000E1E802459942F9DB00203D493D4A086028
:1004800048608860C860086148618861C86120313F
:100490009142F4DB384A002A08D0384834498B1896
:1004A00004680C60043004319942F9DB72B63448B8
:1004B00080F30888334880F309883348334908605B
:1004C00040F20000CCF200004EF63471CEF2000192
:1004D0000860BFF34F8FBFF36F8F40F20000C0F290
:1004E000F0004EF68851CEF200010860BFF34F8F46
:1004F000BFF36F8F0020E1EE100A4EF63C71CEF292
:1005000000010860062080F31488BFF36F8F0CF0A1
:100510009FF90CF0C5F91E491E4A1F4B9A4204DA96
:100520000868106004310432F8E70CF0C1F91B4C84
:100530001B4DAC4203DA216888470434F9E700F028
:10054000A7FB184C184DAC4203DA216888470434E5
:10055000F9E71649084700000000002400000224C3
:1005600000000000008000001C00000010C0010816
:100570000000002000000120000000002CC0010845
:10058000386F0124387F01240100000808ED00E0E5
:100590002CC0010800000024940E00240804000868
:1005A000080400080804000808040008C1C800087E
:1005B0007BB972B90029BEBF00204FF0004106E0B0
:1005C00008BF00281CBF6FF000414FF0FF3000F063
:1005D000BFB9ADF1080C6DE904CE002909DB002B91
:1005E0001ADB00F04DF8DDF804E0DDE9022304B089
:1005F0007047404261EB4101002B1BDB00F040F8EB
:10060000DDF804E0DDE9022304B0404261EB410182
:10061000524263EB43037047524263EB430300F0E3
:100620002FF8DDF804E0DDE9022304B0404261EB7D
:1006300041017047524263EB430300F021F8DDF8BB
:1006400004E0DDE9022304B0524263EB4303704748
:1006500053B94AB9002908BF00281CBF4FF0FF3129
:100660004FF0FF3000F074B9ADF1080C6DE904CE25
:1006700000F006F8DDF804E0DDE9022304B070477D
:100680002DE9F047089D04468E46002B4DD18A4245
:10069000944669D9B2FA82F252B101FA02F3C2F178
:1006A000200120FA01F10CFA02FC41EA030E944009
:1006B0004FEA1C48210CBEFBF8F61FFA8CF708FB2A
:1006C00016E341EA034306FB07F199420AD91CEB02
:1006D000030306F1FF3080F01F81994240F21C8134
:1006E000023E63445B1AA4B2B3FBF8F008FB10337C
:1006F00044EA034400FB07F7A7420AD91CEB0404B1
:1007000000F1FF3380F00A81A74240F20781644480
:10071000023840EA0640E41B00261DB1D440002305
:10072000C5E900433146BDE8F0878B4209D9002D69
:1007300000F0EF800026C5E9000130463146BDE8F3
:10074000F087B3FA83F6002E4AD18B4202D382425D
:1007500000F2F980841A61EB030301209E46002D0C
:10076000E0D0C5E9004EDDE702B9FFDEB2FA82F261
:10077000002A40F09280A1EB0C014FEA1C471FFABF
:100780008CFE0126200CB1FBF7F307FB131140EAA6
:1007900001410EFB03F0884208D91CEB010103F173
:1007A000FF3802D2884200F2CB804346091AA4B235
:1007B000B1FBF7F007FB101144EA01440EFB00FE09
:1007C000A64508D91CEB040400F1FF3102D2A6456E
:1007D00000F2BB800846A4EB0E0440EA03409CE70D
:1007E000C6F12007B34022FA07FC4CEA030C20FABA
:1007F00007F401FA06F31C43F9404FEA1C4900FADA
:1008000006F3B1FBF9F8200C1FFA8CFE09FB181156
:1008100040EA014108FB0EF0884202FA06F20BD9C9
:100820001CEB010108F1FF3A80F08880884240F219
:100830008580A8F102086144091AA4B2B1FBF9F05D
:1008400009FB101144EA014100FB0EFE8E4508D958
:100850001CEB010100F1FF346CD28E456AD90238DD
:10086000614440EA0840A0FB0294A1EB0E01A142C2
:10087000C846A64656D353D05DB1B3EB080261EB30
:100880000E0101FA07F722FA06F3F1401F43C5E90A
:10089000007100263146BDE8F087C2F12003D84040
:1008A0000CFA02FC21FA03F3914001434FEA1C4782
:1008B0001FFA8CFEB3FBF7F007FB10360B0C43EA74
:1008C000064300FB0EF69E4204FA02F408D91CEB24
:1008D000030300F1FF382FD29E422DD90238634422
:1008E0009B1B89B2B3FBF7F607FB163341EA0341C2
:1008F00006FB0EF38B4208D91CEB010106F1FF3811
:1009000016D28B4214D9023E6144C91A46EA004607
:1009100038E72E46284605E70646E3E61846F8E699
:100920004B45A9D2B9EB020864EB0C0E0138A3E7E2
:100930004646EAE7204694E74046D1E7D0467BE7C3
:10094000023B614432E7304609E76444023842E73B
:10095000704700BF00000000000000000000000021
:10096000844641EA000313F003036DD1403A41D3BA
:1009700051F8043B40F8043B51F8043B40F8043B79
:1009800051F8043B40F8043B51F8043B40F8043B69
:1009900051F8043B40F8043B51F8043B40F8043B59
:1009A00051F8043B40F8043B51F8043B40F8043B49
:1009B00051F8043B40F8043B51F8043B40F8043B39
:1009C00051F8043B40F8043B51F8043B40F8043B29
:1009D00051F8043B40F8043B51F8043B40F8043B19
:1009E00051F8043B40F8043B51F8043B40F8043B09
:1009F000403ABDD2303211D351F8043B40F8043BA9
:100A000051F8043B40F8043B51F8043B40F8043BE8
:100A100051F8043B40F8043B103AEDD20C3205D3B8
:100A200051F8043B40F8043B043AF9D2043208D0B0
:100A3000D2071CBF11F8013B00F8013B01D30B8822
:100A400003806046704700BF082A13D38B078DD000
:100A500010F003038AD0C3F10403D21ADB071CBFD2
:100A600011F8013B00F8013B80D331F8023B20F83C
:100A7000023B7BE7043AD9D3013A11F8013B00F875
:100A8000013BF9D20B7803704B7843708B788370FD
:100A900060467047000000000000000000000000F9
:100AA00090F800F06DE9024520F007016FF0000CAE
:100AB00010F0070491F820F040F049804FF0000456
:100AC0006FF00700D1E9002391F840F000F1080031
:100AD00082FA4CF2A4FA8CF283FA4CF3A2FA8CF369
:100AE0004BBBD1E9022382FA4CF200F10800A4FAD0
:100AF0008CF283FA4CF3A2FA8CF3E3B9D1E9042324
:100B000082FA4CF200F10800A4FA8CF283FA4CF35A
:100B1000A2FA8CF37BB9D1E9062301F1200182FA14
:100B20004CF200F10800A4FA8CF283FA4CF3A2FA1A
:100B30008CF3002BC6D0002A04BF04301A4612BA28
:100B4000B2FA82F2FDE8024500EBD2007047D1E92B
:100B5000002304F00305C4F100004FEAC50514F0BA
:100B6000040F91F840F00CFA05F562EA05021CBF8B
:100B700063EA050362464FF00004A9E700000000A5
:100B800001F0FF01102A2BDB10F0070F08D010F83E
:100B9000013B013A8B422DD010F0070F42B3F6D142
:100BA000F0B441EA012141EA014122F007047FF05B
:100BB00000070023F0E80256083C85EA010586EAB2
:100BC000010685FA47F5A3FA87F586FA47F6A5FAEE
:100BD00087F68EB9EED1F0BC01F0FF0102F00702FA
:100BE00032B110F8013B013A83EA010313B1F8D1A5
:100BF0000020704701387047002D06BF3546033886
:100C0000073815F0010F07D1013015F4807F02BFBE
:100C1000013015F4C03F0130F0BC0138704700BF0F
:100C200000BF70470000000000000000000000004E
:100C300000B583B00346ADF80630BDF8063003F0CA
:100C40000103002B01D00BF043FEBDF8063003F08A
:100C50000203002B01D00CF0FBF9BDF8063003F0C5
:100C60000403002B01D0FFF7DBFFBDF8063003F0D3
:100C70001003002B01D00EF08BFD00BF03B05DF818
:100C800004FB00BF000000000000000000000000A6
:100C900008B500F015F800F0B3FC00F029FE00F0F4
:100CA00067FA00F0D5FF01F063F9142002F0E8FFC5
:100CB000F1E700BF0000000000000000000000009D
:100CC00000B587B09B4807F0E3FD02F011F89A4B9E
:100CD0001B68994A43F080731360984B00221A6096
:100CE000974B1B68964A43F001031360642002F09F
:100CF000C7FF944810F044FC00221021692004F042
:100D000077FA00221021682004F072FA00221021E4
:100D1000212004F06DFA00221021452004F068FA29
:100D200001220321472004F063FA01220321482015
:100D300004F05EFA01220321492004F059FA01224D
:100D400003214A2004F054FA43F2C822002104206F
:100D500005F04EF900217C4804F0DAFF00217B48C1
:100D600004F0D6FF42F21071794804F0D1FF794BBC
:100D7000794A0121032003F0FBF8784B784A0121DE
:100D8000012003F0F5F80023764A0A21002004F040
:100D9000BFFE754810F0F4FB00200AF051FA7348CA
:100DA00009F09EFA724B20220021704809F0B0FB36
:100DB000704B302200216D4809F0AAFB6E4B402297
:100DC00000216A4809F0A4FB6C4B502200216748BF
:100DD00009F09EFB6A4B60220021644809F098FBF1
:100DE000684B70220021614809F092FB664B80221B
:100DF00000215E4809F08CFB644B902200215B4887
:100E000009F086FB5E4BA0220021584809F080FBC8
:100E10005F4BB0220021554809F07AFB5D4BC022A0
:100E20000021524809F074FB5B4BD02200214F484F
:100E300009F06EFB594BE02200214C4809F068FB99
:100E4000574BF0220021494809F062FB554B4FF403
:100E500080720021454809F05BFB534B4FF48872C8
:100E60000021424809F054FB504B4FF48872602136
:100E70003E4809F04DFB32220021052005F0B8F86C
:100E800032220021072005F0B3F801F059FB484B4E
:100E9000484A4FF4E131012008F0EAFA00224649BD
:100EA000012008F065F90421012008F0D9F9434830
:100EB00010F066FB01200BF083FB414810F060FB53
:100EC00009F0BEF83F4810F05BFB0023059319E0E2
:100ED00003AB184609F084F86A4603AB06211846AE
:100EE00008F0C6FF9DED027A374BD3ED007A77EE1E
:100EF000277A354BC3ED007A142002F0C1FE059B22
:100F000001330593059B312BE2DD2F4B93ED007AE6
:100F1000DFED2E6AC7EE267A2B4BC3ED007A074B26
:100F20001B682B4A13602B4810F02AFB00BF07B048
:100F30005DF804FB00A3E111FCED00E0041000E00B
:100F4000001000E0E08E01088220140084200400DC
:100F5000E0202400031113000111030002411100DD
:100F60000041010001230008FC8E0108B4040024A4
:100F7000148F01081C8F0108248F01082C8F010891
:100F8000348F0108488F0108508F0108588F0108DD
:100F9000608F0108688F0108708F0108808F010839
:100FA000888F0108908F0108988F0108A08F010891
:100FB0000670010007700100E10F0008A88F01080A
:100FC000C08F0108D48F0108A80E002400004842F9
:100FD000B00E00241890010800000000000000007E
:100FE00000B585B001900091A0E0584B1B78072B0D
:100FF00000F2988001A252F823F000BF1D100008F3
:10100000351000084D1000086D1000088D10000804
:10101000AD100008CD100008ED1000089DF80F304D
:10102000FF2B40F08380494B01221A70484B00226D
:101030001A707BE09DF80F30FE2B03D1434B022248
:101040001A7073E0414B00221A706FE09DF80F2078
:10105000404B9A703E4B1A789DF80F301344DAB229
:101060003B4B1A70394B03221A705FE09DF80F203A
:10107000384BDA70364B1A789DF80F301344DAB2D9
:10108000334B1A70314B04221A704FE09DF80F2039
:10109000304B1A712E4B1A789DF80F301344DAB288
:1010A0002B4B1A70294B05221A703FE09DF80F2038
:1010B000284B5A71264B1A789DF80F301344DAB238
:1010C000234B1A70214B06221A702FE09DF80F2037
:1010D000204B9A711E4B1A789DF80F301344DAB2E8
:1010E0001B4B1A70194B07221A701FE0184B1A7805
:1010F0009DF80F309A4211D1164B9A78164B1A7000
:10110000144BDB785AB2154B1A70124B1B795AB23A
:10111000134B1A700F4B5A79124B1A700B4B00225B
:101120001A7003E0094B00221A7000BF0DF10F0383
:101130001946012007F0B4FF0346002B3FF455AFDA
:1011400000BF00BF05B05DF804FB00BF210F002405
:10115000220F0024240F0024180F0024190F00244C
:101160001A0F00241B0F00240000000000000000E4
:1011700000B589B0A34B1B78002B03D1A24B1B7881
:10118000002B2DD09F4B00221A709F4B00221A700B
:101190009E4B1B78002B0CBF01230023DBB21A46A9
:1011A0009A4B1A709A4B00221A709A4B00221A70AE
:1011B000994B00221A60994B00221A70984B00221A
:1011C0001A60924B1B78002B05D0964A9649974897
:1011D00010F0DEF904E0964A9349944810F0D8F9EB
:1011E0008B4B1B78012B2ED1924B00221A60924B15
:1011F00000221A60914B1B68914A1360DFED910A3F
:101200009FED900A01F0C4F9834B1B68002B09D0B5
:1012100000218D4804F0A4FC7F4B1B68013B7E4AF3
:101220001360C4E142F21071874804F099FC774BD7
:1012300000221A70764B00221A707D4A7A497B4848
:1012400010F0A6F9B3E1714B1B78012B40F09881A7
:10125000704B1B78012B40F0AA80704B00221A7053
:101260006F4B00221A60794B93F9003007EE903AE9
:10127000B8EEE77A764BD3ED007A27EE277A734BF8
:1012800093F900301A46734B93F90030D31A07EEE6
:10129000903AF8EEE76A704BD3ED007A66EEA77AE3
:1012A00077EE277ACDED047A6C4B93F9003007EE98
:1012B000903AB8EEE77A664BD3ED007A27EE277ABC
:1012C000664B93F900301A46654B93F90030D31AF8
:1012D00007EE903AF8EEE76A5F4BD3ED007A66EEE0
:1012E000A77A77EE277ACDED037A584B93F9002051
:1012F000584B1A70594B93F90020594B1A70594B9F
:10130000D3ED007A9DED047A77EE277ACDED027A5F
:10131000554BD3ED007A9DED037A77EE277ACDED2C
:10132000017ADDED010A9DED020A01F031F94F4B22
:1013300000934C4B93ED007ADDED007A67EE277A4F
:10134000FDEEE77A17EE903A0793079B0F2B01DD2E
:101350000F230793079B13F10F0F02DA6FF00E03B1
:10136000079300230693424B1B78282B02D90823AE
:1013700006930DE03E4B1B78132B07D83C4B1B7894
:10138000002B03D06FF00503069301E000230693C2
:10139000069A079B1344274A1360069A079BD31AA1
:1013A000254A1360254B1B68254A1360DEE0194B64
:1013B0001B78022B15D11F4B00221A601E4B0022F6
:1013C0001A601E4B1B681E4A1360FBEE0E0A9FED4F
:1013D0001D0A01F0DDF8274A1349144810F0D8F827
:1013E000C4E00C4B1B78042B48D1234A0E490F480C
:1013F00010F0CEF8064B01221A70074B96221A60A5
:10140000B4E000BF9F0E00241E0F00241C0F002418
:101410001D0F0024180F00242C0F0024300F00246F
:10142000340F00244090010854900108000000246B
:101430005C900108E80E0024EC0E0024AC0E0024A1
:10144000E00E002400000000E0202400190F00241A
:10145000400000241F0F0024440000241A0F002421
:10146000200F0024100F0024140F0024CDCC4C3E7C
:101470001B0F002470900108849001084D4B00223E
:101480001A704D4B00221A704C4B1B68002B1DD05C
:10149000DFED4B0A9FED4A0A01F07AF8494B08222A
:1014A0001A60494B6FF007021A60444B1B68013BFE
:1014B000424A1360414B1B68002B57D1434B00221B
:1014C0001A70434B1B68434A13604FE0424B93ED45
:1014D000007A424BD3ED007A27EE277A404BD3EDCA
:1014E000007A77EE277ACDED057ADDED057A9FED6E
:1014F0003D7AF4EEC77AF1EE10FA0BDB3A4B059326
:10150000354B3A4A1A60314B1B780133DAB22F4B14
:101510001A7014E0DDED057A9FED357AF4EEC77AA6
:10152000F1EE10FA0BD8334B05932B4B4FF07E5254
:101530001A60264B1B780133DAB2244B1A70DFEDA8
:10154000200A9DED050A01F023F81E4B00221A60C7
:101550001D4B00221A601E4B1B681E4A13601B4B5A
:101560001B78032B02D9154B32221A60224B1B68C1
:10157000002B1CD142F21071204804F0F1FA16E061
:10158000DFED0F0A9FED0E0A01F002F8094B002271
:101590001A70094B00221A700C4B00221A70074B6C
:1015A00000221A6042F21071144804F0D9FA09B00E
:1015B0005DF804FB1F0F0024200F0024340F0024CB
:1015C00000000000E80E0024EC0E0024300F002480
:1015D000AC0E0024E00E0024480000244C0000243F
:1015E000100F00240000B4420000B442000080BF8D
:1015F0000000B4C20000B4C22C0F0024E02024007C
:1016000000B58BB0A64B1B680693A64B1B68069AC9
:10161000D31A07EE903AB8EE677ADFEDA36AC7EE09
:10162000267AA24BC3ED007AA04BD3ED007AF5EEFB
:10163000C07AF1EE10FA09D99C4BD3ED007A9FEDF8
:101640009C7AF4EEC77AF1EE10FA02DD974B994AD4
:101650001A60944A069B13600023ADF816300023ED
:10166000ADF814300DF116031946032002F0B8FB53
:1016700005AB1946012002F0B3FB032002F038FC51
:10168000012002F035FCBDF916309BB25B429BB2E3
:101690001AB2894B1A80BDF91420884B1A8003AB0B
:1016A000184608F09DFC6A4603AB0621184608F070
:1016B000DFFB834B93ED007ADDED026A814BD3EDC6
:1016C000007A76EEE76A794BD3ED007A66EEA77A78
:1016D00077EE677A7A4BC3ED007A7B4B1B78002B51
:1016E00004D0794B00221A700AF072FE774B1B78F7
:1016F000012B40F0BE80764B1B7A012B40F0B98065
:10170000734B93ED067B724B93ED086B714B93ED2E
:10171000005B714B93ED004BB0EE443BB0EE452BBC
:10172000B0EE461BB0EE470B0AF09AFDB0EE407BE0
:101730006A4B83ED007B664B93ED067B644B93ED28
:10174000086B644B93ED005B634B93ED004BB0EE85
:10175000443BB0EE452BB0EE461BB0EE470B0AF013
:1017600097FCB0EE407B5E4B83ED007B5B4B93EDD3
:10177000006B5A4B93ED007BB4EE476BF1EE10FA21
:1017800077D1574B93ED006B554B93ED007BB4EE47
:10179000476BF1EE10FA6CD1514B93ED007B9FED4E
:1017A000386BB4EEC67BF1EE10FA62DC4C4B93ED75
:1017B000007BB5EEC07BF1EE10FA5AD4474BD3E96B
:1017C0000023CDE908239DED087B9FED2F6BB4EE40
:1017D000C67BF1EE10FA07DD9DED087B9FED2C6BCB
:1017E00037EE467B8DED087B354BD3ED007AB7EEB7
:1017F000E77A9DED086B36EE477B3A4B83ED007B35
:101800000A23079309E0374B93ED007B9FED206B94
:1018100037EE467B334B83ED007B324B93ED007B01
:101820009FED196BB4EEC67BF1EE10FA04DD079B59
:101830005A1E0792002BE6DC0A23079309E0294B86
:1018400093ED007B9FED126B37EE067B254B83ED0E
:10185000007B244B93ED007B9FED0F6BB4EEC67BBA
:10186000F1EE10FA00D404E0079B5A1E0792002BF9
:10187000E5DC00BF0BB05DF804FB00BFAFF30080F8
:101880000000000080842E410000000000806640BF
:10189000000000000080764000000000008066C06C
:1018A000041000E0B00E0024180D8F4D200000241D
:1018B000CDCCCC3D0AD7A33CA20E0024A40E00241C
:1018C000AC0E0024A80E0024B00F0124B40E002496
:1018D000B80F0124B80E0024C00E0024D00E00243E
:1018E000C80E0024D80E00240000000000000000F4
:1018F00000B583B09F4B1B78012B00F08D819E4B70
:101900001B78012B00F088819C4B1B78022B00F088
:10191000A380022B00F38581002B02D0012B4AD03B
:101920007FE1974B00221A60964B00221A60964B7B
:101930001B68964A1360964B1B78002B0AD0944B79
:1019400000221A708D4B01221A70924A92499348D4
:101950000FF01EFE924B1B78002B1CD0904B0022E8
:101960001A70904B1B78012B10D1874B4FF000025F
:101970001A60864B4FF000021A60804B02221A70E8
:10198000894A854985480FF003FE04E0874A824969
:1019900082480FF0FDFD864B1B78002B00F03E8146
:1019A000774B0A221A60774B06221A60764B1B6827
:1019B000764A136032E1724B00221A60714B0022AA
:1019C0001A60714B1B68714A1360794B1B78002BAE
:1019D00009D06B4B0A221A606A4B06221A606A4BC6
:1019E0001B686A4A13606E4B1B78002B23D06C4B2C
:1019F00000221A706F4B1B7A012B17D16D4BD3E964
:101A000006236D49C1E900236A4BD3E908236B49DA
:101A1000C1E90023634B01221A70584B00221A704F
:101A2000674A5D495D480FF0B3FD04E0654A5A49D5
:101A30005A480FF0ADFD564B1B78002B00F0F0809C
:101A4000534B00221A704D4B00221A705E4A5249C5
:101A500052480FF09DFDE3E04D4B1B78002B0BD05F
:101A60004B4B00221A70454B00221A70574A4A49C4
:101A70004A480FF08DFDD4E04E4B1B7A012B40F00D
:101A8000C3804C4B93F83C30042B40F2BD80504B4C
:101A900093ED007BB0EE046BB4EEC67BF1EE10FA72
:101AA00040F3A0804B4BD3ED007AB7EEE76A4A4B88
:101AB00093ED007B26EE076B474B93ED005B474BA6
:101AC000D3ED007AB7EEE77A35EE475B444BD3EDC2
:101AD000007AB7EEE77A25EE077B36EE077BFDEE60
:101AE000C77B17EE903A01933B4B93ED007BF7EEEB
:101AF000C77B3A4BC3ED007A019B062B01DD062321
:101B00000193019B13F1060F02DA6FF005030193B5
:101B1000019B002BB8BF5B42C3F10A030093009BFB
:101B2000002B01DA002300932B4B93ED007BFDEE9D
:101B3000C77B17EE903A002BB8BF5B42502B0EDDEF
:101B400000230093244B93ED007BB5EEC07BF1EEB8
:101B500010FA01DD082301E06FF007030193009AFA
:101B6000019B1344064A1360009A019BD31A054A4D
:101B7000136050E01C0F00241D0F0024980E002459
:101B8000E80E0024EC0E0024AC0E0024E00E00242D
:101B90009E0E002498900108549001080000002433
:101BA0009D0E0024B40E0024A8900108B8900108EE
:101BB0009C0E0024B80F0124B80E0024C00E00248F
:101BC000C8900108D4900108E4900108F890010839
:101BD000C80E002424000024D80E0024E40E0024A3
:101BE00028000024104B00221A60104B00221A60BB
:101BF0000F4B00221A700F4A0F4910480FF0C8FC13
:101C00000F4B01221A7006E0074B00221A60074BA7
:101C100000221A6005E004E000BF02E000BF00E01F
:101C200000BF03B05DF804FBE80E0024EC0E0024B6
:101C3000980E00240C910108549001080000002423
:101C40001E0F002400000000000000000000000043
:101C500000B583B0B14B1B6807EE903AB8EEE77A57
:101C6000AF4BD3ED007AB4EEE77AF1EE10FA22DD55
:101C7000AB4B93ED007AAB4BD3ED007A77EE277A3E
:101C8000A74BC3ED007AA54B1B6807EE903AB8EE60
:101C9000E77AA34BD3ED007AB4EEE77AF1EE10FACF
:101CA00039D59E4B1B6807EE903AF8EEE77A9C4BCD
:101CB000C3ED007A2FE0994B1B6807EE903AB8EE1F
:101CC000E77A974BD3ED007AB4EEE77AF1EE10FAAB
:101CD00021D5934B93ED007A924BD3ED007A77EEBA
:101CE000677A8F4BC3ED007A8C4B1B6807EE903AF6
:101CF000B8EEE77A8A4BD3ED007AB4EEE77AF1EEEC
:101D000010FA08DD854B1B6807EE903AF8EEE77A8B
:101D1000834BC3ED007A844B1B6807EE903AB8EE14
:101D2000E77A824BD3ED007AB4EEE77AF1EE10FA5F
:101D300022DD7E4B93ED007A7A4BD3ED007A77EE7D
:101D4000277A7A4BC3ED007A774B1B6807EE903AFF
:101D5000B8EEE77A754BD3ED007AB4EEE77AF1EEA0
:101D600010FA39D5704B1B6807EE903AF8EEE77A17
:101D70006E4BC3ED007A2FE06B4B1B6807EE903A79
:101D8000B8EEE77A694BD3ED007AB4EEE77AF1EE7C
:101D900010FA21D5654B93ED007A624BD3ED007AB2
:101DA00077EE677A614BC3ED007A5F4B1B6807EEF5
:101DB000903AB8EEE77A5D4BD3ED007AB4EEE77A6D
:101DC000F1EE10FA08DD584B1B6807EE903AF8EE7A
:101DD000E77A564BC3ED007A554BD3ED007A554B5D
:101DE00093ED007A544BD3ED006A4C4B18684C4B82
:101DF00093ED006A514BB3F90010514B1B680093EF
:101E0000504B514AF0EE461AB0EE661AF0EE470A11
:101E1000B0EE670A00F0D4F90346494A1360444B18
:101E2000D3ED007A434B93ED007A434BD3ED006A38
:101E30003D4B18683D4B93ED006A444BB3F90010DD
:101E4000434B1B680093434B434AF0EE461AB0EEF7
:101E5000661AF0EE470AB0EE670A00F0B1F90346E1
:101E60003B4A1360364B1B68002BB8BF5B4240F601
:101E7000B832934208DD314BB3F90030002BB8BFC4
:101E80005B429BB2012B11D9314B1B68002BB8BFB1
:101E90005B4240F6B83293420EDD2C4BB3F9003072
:101EA000002BB8BF5B429BB2012B05D82B4B1B68A4
:101EB00001332A4A136002E0284B00221A60274BA4
:101EC0001B68322B1BDD1E4B00221A60204B0022A8
:101ED0001A60134B4FF000021A60144B4FF00002CF
:101EE0001A60194B00221A601B4B00221A601C4A10
:101EF0001C491D480FF04CFB1C4B00221A70104B64
:101F00001B68184600F09CFA114B1B68184600F03D
:101F1000D7FA00BF03B05DF804FB00BFE80E002451
:101F2000F00E00242C000024EC0E0024F40E0024FB
:101F3000300000243400002438000024A20E0024C5
:101F4000080F0024F80E0024FC0E0024A40E002428
:101F50000C0F0024000F0024040F0024380F00246D
:101F60001C9101085490010800000024980E0024E0
:101F700000B583B07C4B1A68531C7B490B607B4BCC
:101F800083FB02135910D317C91A0B469B000B444D
:101F9000D11A002940F0E480754B1B78002B06D144
:101FA000744B00220021744808F0B2FA14E0704B20
:101FB0001B78012B06D1714B002200216E4808F0DE
:101FC000A7FA09E06A4B1B78022B05D16C4B002263
:101FD0000021694808F09CFA6A4B102200216648EB
:101FE00008F096FA684BD3ED007AB7EEE77A022351
:101FF00000930323B0EE470B202248215E4808F0EF
:10200000AFFE624BD3ED007AB7EEE77A022300937E
:102010000323B0EE470B30224821574808F0A0FEBA
:102020005B4B93ED007B022300930323B0EE470B41
:1020300040224821504808F093FE564B93ED007B18
:10204000012300930423B0EE470B502248214A4855
:1020500008F086FE504BD3ED007AB7EEE77A012305
:1020600000930423B0EE470B70224821424808F049
:1020700077FE4A4BD3ED007AB7EEE77A012300935F
:102080000423B0EE470B802248213B4808F068FE4D
:10209000434B1B781A460323009313469022482192
:1020A000354808F03DFD3F4BB3F900301A46032395
:1020B00000931346B02248212F4808F011FC3A4BF8
:1020C000B3F900301A46032300931346C022482177
:1020D000294808F005FC354B1B7A012B06D1344BFF
:1020E000E0224021244808F013FA05E0314BE022B9
:1020F0004021214808F00CFA2C4B93ED087B062375
:1021000000930323B0EE470BF02240211A4808F059
:1021100027FE264B93ED067B062300930223B0EEA9
:10212000470B4FF480724021134808F019FE1F4BF3
:1021300093F83C301A460223009313464FF48872FA
:1021400040210D4808F0ECFC1B4B1B781A4601237C
:10215000009313464FF488729021074808F0E0FC82
:1021600000BF03B05DF804FB3C0F002467666666A1
:10217000980E002430910108B4040024489101080D
:102180006091010800000024AC0E0024E00E002441
:10219000D80E0024C80E0024100F0024140F0024B1
:1021A0001B0F0024A20E0024A40E0024B80F01244B
:1021B0007891010880910108B40E0024000000000D
:1021C0008CB08DED070ACDED060A8DED051A049051
:1021D000CDED031A019200930B46ADF80A30DDED08
:1021E000037AFDEEE77A17EE902ABDF90A30D31A8A
:1021F0000B93019B1B680A93049B002B12D1DDED0E
:10220000037AF5EE407AF1EE10FA0BD10B9BB3F1A5
:10221000FF3F07DB0B9B012B04DC00230A93002309
:102220000B9312E00C9B41F26F72934202DD0B9B09
:10223000002B0ADC0C9B2C4A934202DA0B9B002BEE
:1022400003DB0A9A0B9B13440A930A9BB3F5967F10
:1022500003DD4FF496730A9305E00A9B13F5967F0E
:1022600001DA224B0A930B9B07EE903AB8EEE77A1D
:10227000DDED077A27EE277A0A9B07EE903AF8EE13
:10228000E76ADDED067A66EEA77A37EE277A009BDD
:102290001B680B9AD31A07EE903AF8EEE76ADDED69
:1022A000057A66EEA77A77EE277AFDEEE77A17EEE3
:1022B000903A0993009B0B9A1A60019B0A9A1A6044
:1022C000099B41F27072934203DD41F270730993EE
:1022D00005E0099B064A934201DA054B0993099BE5
:1022E00018460CB0704700BF91E8FFFFD4FEFFFF17
:1022F00090E8FFFF00000000000000000000000068
:1023000000B585B001900091472002F0E9FE034638
:102310008DF80F30482002F0E3FE03468DF80E30B2
:10232000492002F0DDFE03468DF80D304A2002F010
:10233000D7FE03468DF80C309DF80F30002B0CBFF4
:1023400001230023DBB21A462F4B1A709DF80E3082
:10235000002B0CBF01230023DBB21A462B4B1A7053
:102360009DF80D30002B0CBF01230023DBB21A4671
:10237000274B1A709DF80C30002B0CBF0123002353
:10238000DBB21A46234B1A70234B1B78012B06D164
:102390009DF80F30002B02D1204B01221A70204BE8
:1023A0001B78012B06D19DF80E30002B02D11D4B5E
:1023B00001221A701C4B1B78012B06D19DF80D30A1
:1023C000002B02D1194B01221A70194B1B78012BDB
:1023D00006D19DF80C30002B02D1164B01221A7049
:1023E0000D4A9DF80F3013700D4A9DF80E30137092
:1023F0000D4A9DF80D3013700D4A9DF80C30137086
:1024000000BF05B05DF804FB990E00249A0E00246D
:102410009B0E00249C0E0024500000249D0E0024DE
:10242000510000249E0E0024520000249F0E002420
:1024300053000024A00E0024000000000000000053
:1024400000B583B00190019B002B08DD00216920BD
:1024500002F0E6FD0121682002F0E2FD16E0019B9A
:10246000002B0BDA0121692002F0DAFD002168203F
:1024700002F0D6FD019B5B42019307E00021692039
:1024800002F0CEFD0021682002F0CAFD019B41F25E
:102490007072934202DD41F270730193019B194601
:1024A000034803F05DFB00BF03B05DF804FB00BF11
:1024B0008220140000000000000000000000000066
:1024C00000B583B00190019B002B08DD0121212084
:1024D00002F0A6FD0021452002F0A2FD16E0019BBE
:1024E000002B0BDA0021212002F09AFD012145206A
:1024F00002F096FD019B5B42019307E00021212041
:1025000002F08EFD0021452002F08AFD019B41F280
:102510007072934202DD41F270730193019B194680
:10252000034803F01DFB00BF03B05DF804FB00BFD0
:1025300084200400000000000000000000000000F3
:1025400008B50D4B1B6819460C4803F0E1FB0A4B1C
:102550001B6819460A4803F0DBFB0A4B4FF00002E8
:102560001A60094B4FF000021A604FF47A7001F0C4
:1025700087FB00BF08BD00BF3C000024ED20150014
:1025800088100700100F0024140F00240000000022
:1025900000B585B08DED010ACDED000ADDED017AC3
:1025A0009FED307AF4EEC77AF1EE10FA01DD2E4B92
:1025B0000193DDED017A9FED2D7AF4EEC77AF1EE0D
:1025C00010FA01D52A4B0193DDED007A9FED297AAF
:1025D000F4EEC77AF1EE10FA01DD274B0093DDED42
:1025E000007A9FED267AF4EEC77AF1EE10FA01D563
:1025F000234B0093234B1B689DED017ADFED196A95
:10260000C7EE267A9FED207A67EE877AFDEEE77AAD
:1026100017EE902A9B1A03939DED007ADFED1B6A5B
:10262000C7EE267A9FED187A67EE877AFDEEE77A95
:1026300017EE902A134B1B6813440293039B194611
:10264000134803F08DFA029B1946124803F088FAEA
:10265000114A019B1360114A009B136000BF05B033
:102660005DF804FB0000074300000743000007C3B8
:10267000000007C30000A2420000A2420000A2C264
:102680000000A2C23C0000240000FA430000B44253
:10269000ED20150088100700100F0024140F0024EF
:1026A00000B585B0039002910192019900230022A8
:1026B000029806F08DFB019B184605B05DF804FBFF
:1026C00000B585B001900E4B1B6803930C4B1A6844
:1026D000019B13440B4A934207D90EF089FE03462F
:1026E0000C221A604FF0FF3306E0054B1A68019B7D
:1026F0001344034A1360039B184605B05DF804FBBE
:102700006800002400000224000000000000000017
:1027100000BF704700000000000000000000000043
:1027200082B00023019300230093002301930CE067
:102730000023009302E0009B01330093009BB3F55C
:10274000803FF8D3019B01330193019BFF2BEFD90D
:1027500000BF00BF02B07047000000000000000092
:1027600010B5DAB05AACA4F5AA7420605AA8A0F546
:10277000AC7001605AA9A1F5AE710A605AAAA2F51F
:10278000B0721360002359930023ADF86231002327
:10279000ADF860315AABA3F5AC731868FEF780F959
:1027A00003461BB2ADF85E310023ADF85C31002367
:1027B000ADF85A319D4B1B78032B40F0C1819B4BE8
:1027C0001B699A4A926810469847984BDC68974B69
:1027D0009868BDF85A311AB293B201339BB21BB25A
:1027E000ADF85A3192B25AABA3F5AA731B68002117
:1027F000A0475AABA3F5AC731B6859935AABA3F52A
:10280000AC731868FEF74CF903461BB2ADF85E31A5
:10281000864B5B881A46854B9B7992FBF3F31BB280
:10282000ADF85C3100BF599B5A1C599293F90030A6
:10283000002BF8D10023ADF860311CE0599B013B1F
:102840005993599B93F900302F2B04D0599B93F93E
:1028500000305C2B06D1BDF860319BB201339BB2D6
:10286000ADF86031BDF85E311BB29BB2013B9BB24B
:102870001BB2ADF85E31BDF860319BB2012B04D8BC
:10288000BDF85E311BB2002BD8DABDF85E311BB249
:10289000002B09DB599B0133599316AB599A6449B4
:1028A00018460EF075FE11E0BDF860319BB2002BAA
:1028B00006D116AB599A5F4918460EF069FE05E03D
:1028C00016AB599A5A4918460EF062FE0023ADF82D
:1028D00062316BE00023ADF8603135E016AB18468D
:1028E000FEF7DEF803469BB21A46BDF860319BB294
:1028F0001946BDF862319BB2BDF85C0100B200FB25
:1029000003F30B449A4229DBBDF860319BB21A46AF
:10291000BDF862319BB2BDF85C1109B201FB03F353
:102920001344BDF8602192B211465AAAA2F58872EA
:10293000D2565AABA3F5A8735A54BDF860319BB276
:1029400001339BB2ADF86031BDF860319BB21A46DD
:10295000BDF85C311BB29A42C0DB00E000BFBDF89D
:1029600060319BB21A465AABA3F5A8730021995463
:102970002E4BDC682D4B98682C4BDB799AB2BDF856
:102980005A3119B28BB201339BB21BB2ADF85A3136
:102990008BB212FB03F39AB206AB0021A047BDF83D
:1029A00062319BB201339BB2ADF86231BDF8623146
:1029B0009BB21C4616AB1846FEF772F80346BDF8EC
:1029C0005C2112B2B3FBF2F301339C4282D35AABC7
:1029D000A3F5AE7316A81A6817490EF0D9FD134B6C
:1029E000DC68124B9868114BDB799AB2BDF85A310A
:1029F00019B28BB201339BB21BB2ADF85A318BB214
:102A000012FB03F39AB216AB0021A0475AABA3F511
:102A1000B0731B68002B00F0CA800023ADF8623150
:102A200079E00023ADF8603143E000BF400F00249F
:102A3000909101089C910108AC9101085AABA3F553
:102A4000B0731868FEF72CF803469BB21A46BDF81F
:102A500060319BB21946BDF862319BB2BDF85C0192
:102A600000B200FB03F30B449A422CDBBDF860314B
:102A70009BB21A46BDF862319BB2BDF85C1109B237
:102A800001FB03F313441A465AABA3F5B0731B685A
:102A90001344BDF8602192B293F900105AABA3F52C
:102AA000A8739954BDF860319BB201339BB2ADF865
:102AB0006031BDF860319BB21A46BDF85C311BB283
:102AC0009A42BBDB00E000BFBDF860319BB21A4602
:102AD0005AABA3F5A87300219954364BDC68354BEB
:102AE0009868344BDB799AB2BDF85A3119B28BB27F
:102AF00001339BB21BB2ADF85A318BB212FB03F318
:102B00009AB206AB0021A047BDF862319BB20133F7
:102B10009BB2ADF86231BDF862319BB21C465AAB34
:102B2000A3F5B0731868FDF7BBFF0346BDF85C2141
:102B300012B2B3FBF2F301339C42FFF472AF36E002
:102B400016AB4FF48072002118460EF059FC194B59
:102B5000DB685AAAA2F5AA72106898475AABA3F587
:102B6000B0731B68002B11D05AABA3F5AE735AAAF1
:102B7000A2F5AC7216A85AA9A1F5B0710968009126
:102B80001B6812680C490EF003FD0BE05AABA3F56D
:102B9000AE735AAAA2F5AC7216A81B681268074950
:102BA0000EF0F6FC034BDB6816AA1046984700BFF0
:102BB0005AB010BD400F0024B8910108D49101080B
:102BC00000B585B00292019303468DF80F300B4695
:102BD0008DF80E309DF80E30002B24D19DF80F306B
:102BE000012B19D0022B20D1164B1B78002B00D0C3
:102BF000FEE7144B1B780133DAB2124B1A7002F065
:102C000057FCFFF785FD029B069A01990E48FFF7D6
:102C1000A7FDFFF785FDF6E7029B069A01990B4891
:102C2000FFF79EFD02E000BF00E000BF9DF80E3000
:102C3000002B0CBF01230023DBB2184605B05DF862
:102C400004FB00BF940F0024EC910108FC910108E3
:102C500000B583B0019000916A46012301990448B0
:102C600000F0BEFA009B184603B05DF804FB00BFFD
:102C700054000024000000000000000000000000DC
:102C800084B00390084611461A460346ADF80A3050
:102C90000B46ADF8083013468DF80730039B002B28
:102CA0001CD0104A039B93600E4B03221A700D4AEE
:102CB000BDF80A3053800B4ABDF808309380094AAA
:102CC0009DF807309371074A9DF81030D371054A7B
:102CD000059BD360034A069B136100E000BF00BF61
:102CE00004B07047400F0024000000000000000006
:102CF00008B5094B01221A70074B084ADA604023D5
:102D0000074A0121074800F0A3FB064A064902488A
:102D100006F07EF800BF08BD400F0024B18D00080A
:102D2000540F002454000024818D0008000000008E
:102D300082B00190019B002B0CD0019B5B7C03F0C7
:102D40000103DBB2002B07D0019A537C43F0100340
:102D5000537402E000BF00E000BF00BF02B0704744
:102D60002DE9F04F89B003904FF000024FF00003BF
:102D7000CDE90623039B002B57D0039B5B7C03F01C
:102D80000103DBB2002B52D0039B5B7C03F01003EA
:102D9000DBB2002B4DD1039B5A68039B1B68D31AEF
:102DA0000593039B5B7CC3F3C003DBB28DF8133048
:102DB000039A537C43F008035374039B5B7C03F03A
:102DC0002003DBB2002B06D0059B00229A469346D7
:102DD000CDE906AB1EE0039B9A68039BDB68D31A20
:102DE000002298469146CDE90689059B00221C46A3
:102DF0001546DDE90623A61845EB0307059B0022CF
:102E000000930192DDE9002330463946FDF7D0FBFF
:102E1000CDE906239DF8133003F00103D9B2039ADC
:102E2000537C61F3C303537404E000BF02E000BFAE
:102E300000E000BF069B184609B0BDE8F08F00BF58
:102E400000B587B00190009101238DF81730019BE8
:102E5000002B03D102238DF8173081E0019B5B7CAE
:102E600003F00103DBB2002B03D103238DF81730ED
:102E700076E0019B5B7C03F00803DBB2002B03D000
:102E800004238DF817306BE0019B5B7C03F0020399
:102E9000DBB2002B03D005238DF8173060E0019AD8
:102EA000537C43F002035374019B5B7C03F01003DB
:102EB000DBB2002B11D0019B1A68019B9A60019B29
:102EC0001A68019BDA60019A537C6FF345135374BF
:102ED000019A537C6FF304135374019B5B7C03F0E2
:102EE0002003DBB2002B08D006238DF81730019A9F
:102EF000537C6FF34103537432E0019B9B6804934E
:102F0000019BDB6803930498019B1B7C1A466B466C
:102F10001946FDF725FD019B1B7C1A46049B1344B3
:102F20000493019B5B68049A9A4202D1019B1B683F
:102F30000493049A039B9A420CBF01230023D9B245
:102F4000019A537C61F345135374019B049A9A6070
:102F5000019A537C6FF34103537400238DF81730AB
:102F60009DF81730184607B05DF804FB000000001C
:102F700000B58BB003900291019201238DF82730A8
:102F8000039B002B09D0029B002B06D0019B002B3A
:102F900003D0019B1B68002B03D102238DF827303F
:102FA00013E1019B1B680893019B00221A60039B9D
:102FB0005B7C03F00103DBB2002B03D103238DF80C
:102FC000273002E1039B5B7C03F00803DBB2002B9C
:102FD00003D004238DF82730F7E0039B5B7C03F0DC
:102FE0000203DBB2002B03D005238DF82730ECE081
:102FF000039A537C43F002035374039B5B7C03F0FE
:103000001003DBB2002B11D0039B1A68039B9A605C
:10301000039B1A68039BDA60039A537C6FF3451392
:103020005374039A537C6FF304135374039B5B7CB8
:1030300003F02003DBB2002B08D006238DF82730E5
:10304000039A537C6FF341035374BEE0039B9B6868
:103050000793039BDB68059300230693059A079B60
:103060009A422BD9059A079BD31A0693039B1B7C84
:103070001A46069BB3FBF2F3089A9A4209D9039BBE
:103080001B7C1A46069BB3FBF2F3089307238DF8CB
:1030900027300798039B1B7C1A46089B02FB03F30F
:1030A0001A460299FDF75CFC039B1B7C1A46089BA1
:1030B00002FB03F3079A134407935DE0039B5A68EE
:1030C000079BD31A0693039B1B7C1A46069BB3FBF4
:1030D000F2F3089A9A4214D80798039B1B7C1A466D
:1030E000089B02FB03F31A460299FDF739FC039B88
:1030F0001B7C1A46089B02FB03F3079A13440793B1
:103100003AE0079B069A02991846FDF729FC029AB5
:10311000069B13440293039B1B7C1A46089B03FBEC
:1031200002F2069BD31A0693039B1B68059AD31AD7
:10313000069A9A4214D9039B1A68059BD21A069BD9
:103140001344039A127CB3FBF2F3089AD31A089340
:10315000039B1B68059AD31A069307238DF8273023
:10316000039B1B68069A02991846FDF7F9FB039B1F
:103170001B68069A13440793039B5B68079A9A425D
:1031800002D1039B1B680793079A059B9A420CBFC9
:1031900001230023D9B2039A537C61F3451353747E
:1031A000039B079A9A60039A537C6FF3410353740D
:1031B000019B089A1A609DF82730012B02D09DF8D8
:1031C000273000E000238DF827309DF8273018467F
:1031D0000BB05DF804FB00BF000000000000000021
:1031E00000B58BB00390029101928DF8033001235A
:1031F0008DF82730039B002B06D0019B002B03D0BA
:10320000019B1B68002B03D102238DF8273012E1AC
:10321000019B1B680893019B00221A60039B5B7C47
:1032200003F00103DBB2002B03D103238DF8273019
:1032300001E1039B5B7C03F01003DBB2002B03D0A6
:103240000A238DF82730F6E0039B5B7C03F008032C
:10325000DBB2002B03D008238DF82730EBE0039B73
:103260005B7C03F00403DBB2002B03D009238DF851
:103270002730E0E0039A537C43F004035374039B2C
:10328000DB680793039B9B68059300230693079ACB
:10329000059B9A420FD1039B5B7C03F02003DBB2BA
:1032A000002B08D10A238DF82730039A537C6FF343
:1032B00082035374BFE0079A059B9A422ED2059A67
:1032C000079BD31A0693039B1B7C1A46069BB3FBF2
:1032D000F2F3089A9A4209D9039B1B7C1A46069B73
:1032E000B3FBF2F308930B238DF82730029B002BDE
:1032F0000AD00799039B1B7C1A46089B02FB03F329
:103300001A460298FDF72CFB039B1B7C1A46089B70
:1033100002FB03F3079A1344079366E0039B5A6882
:10332000079BD31A0693039B1B7C1A46069BB3FB91
:10333000F2F3089A9A4217D8029B002B0AD00799F9
:10334000039B1B7C1A46089B02FB03F31A46029858
:10335000FDF706FB039B1B7C1A46089B02FB03F34D
:10336000079A1344079340E0029B002B05D0079B6C
:10337000069A19460298FDF7F3FA029A069B13443F
:103380000293039B1B7C1A46089B03FB02F2069BDD
:10339000D31A0693039B1B68059AD31A069A9A427E
:1033A00014D9039B1A68059BD21A069B1344039AEF
:1033B000127CB3FBF2F3089AD31A0893039B1B68A1
:1033C000059AD31A06930B238DF82730029B002B06
:1033D00006D0039B1B68069A19460298FDF7C0FAAF
:1033E000039B1B68069A134407939DF80330002B38
:1033F0000FD0039B5B68079A9A4202D1039B1B681C
:103400000793039A537C6FF345135374039B079AF6
:10341000DA60039A537C6FF382035374019B089A1A
:103420001A609DF82730012B02D09DF8273000E06C
:1034300000238DF827309DF8273018460BB05DF833
:1034400004FB00BF000000000000000000000000BE
:1034500086B00390019200930B468DF80B30012348
:103460008DF81730039B002B05D0019B002B02D059
:10347000009B002B03D102238DF817301DE0039B26
:103480003E225A74019A039B1A60039B1A68009BA0
:103490001A44039B5A60039B1A68039B9A60039B20
:1034A0001A68039BDA60039B9DF80B201A74039B38
:1034B00001225A7400238DF817309DF817301846F2
:1034C00006B070470000000000000000000000008F
:1034D00000B585B003900291019209480EF050F8B2
:1034E000039908480DF0E4FF029907480DF0E0FF4A
:1034F000019B002BF1D0019904480DF0D9FFECE7B6
:10350000109201082C920108389201084892010893
:1035100000B585B00190019B002B04D10022EB2166
:103520002348FFF7D5FF00238DF80F3000230293C7
:10353000019B002B36D0019B93F900302D2B06D137
:1035400001238DF80F30019B0133019318E0019B9B
:1035500093F900302B2B13D1019B013301930FE022
:10356000029A13469B0013445B001A46019B93F991
:103570000030DBB2303B13440293019B01330193D3
:10358000019B93F900302F2B04DD019B93F9003050
:10359000392BE5DD9DF80F30002B04D0029B5B42F8
:1035A000029300E000BF029B184605B05DF804FBE3
:1035B0005892010800000000000000000000000018
:1035C00000B589B001900091019B002B05D100222C
:1035D0004FF48D713148FFF77BFF00238DF81F30CA
:1035E00000230693019B002B52D0009B002B08DA8E
:1035F000019B5A1C01922D221A70009B5B42009382
:103600002AE0009B002B27D1019B30221A7040E05A
:10361000009A234B83FB02139910D317C91A0B4648
:103620009B000B445B00D31A0693069B83EAE3726C
:10363000A2EBE3729DF81F30591C8DF81F10D2B217
:1036400020336B4403F8182C009B154A82FB0312AD
:103650009210DB17D31A0093009B002BD8D112E0F5
:103660009DF81F30013B20336B4413F8183C303376
:10367000D9B2019B5A1C01924AB21A709DF81F30B0
:10368000013B8DF81F309DF81F30002BE8D100E082
:1036900000BF00BF09B05DF804FB00BF58920108ED
:1036A0006766666600000000000000000000000081
:1036B00000B589B001900091019B002B05D100223B
:1036C0004FF4B4712548FFF703FF00238DF81F3036
:1036D000019B002B3DD0009B002B1DD1019B302274
:1036E0001A7037E000991E4BA3FB0123DA0813463A
:1036F0009B0013445B00CA1A9DF81F30591C8DF8BB
:103700001F1052B220336B4403F8142C009B144A50
:10371000A2FB0323DB080093009B002BE2D113E004
:103720009DF81F30013B20336B4413F9143CDBB28E
:103730003033D9B2019B5A1C01924AB21A709DF8DB
:103740001F30013B8DF81F309DF81F30002BE7D153
:1037500000E000BF00BF09B05DF804FB589201080B
:10376000CDCCCCCC00000000000000000000000028
:1037700000B58BB00190019B002B05D1002240F2D7
:1037800027215948FFF7A4FE00238DF827304FF07A
:1037900000024FF00003CDE906234FF000024FF086
:1037A0000003CDE904234FF00002504BCDE9022382
:1037B000019B002B00F08A80019B93F900302D2B98
:1037C00006D101238DF82730019B013301931EE0C0
:1037D000019B93F900302B2B19D1019B01330193ED
:1037E00015E09DED067BB2EE046B27EE066B019BA8
:1037F00093F90030DBB2303B07EE903AB8EEE77B4E
:1038000036EE077B8DED067B019B01330193019B17
:1038100093F900302F2B04DD019B93F90030392BF5
:10382000DFDD019B93F900302E2B3CD1019B01334E
:1038300001931DE09DED047BB2EE046B27EE066B59
:10384000019B93F90030DBB2303B07EE903AB8EEC3
:10385000E77B36EE077B8DED047B9DED027BB2EEC0
:10386000046B27EE067B8DED027B019B01330193F8
:10387000019B93F900302F2B0DDD019B93F9003054
:10388000392B08DC9DED027B9FED156BB4EEC67BFA
:10389000F1EE10FACED49DED045B9DED026B85EE4A
:1038A000067B8DED047B9DED066B9DED047B36EE76
:1038B000077B8DED067B9DF82730002B07D09DED13
:1038C000067BB1EE477B8DED067B00E000BFDDE9B6
:1038D000062343EC172BB0EE470B0BB05DF804FB4F
:1038E0000000000065CDCD41589201080000F03F76
:1038F00000B59DB003908DED000B0B468DF80B309D
:10390000039B002B05D1002240F267217C48FFF782
:10391000DFFD00231B9300231A939DF80B308DF8D5
:103920006730039B002B00F0E6809DED007BFDEEF1
:10393000C77B17EE903A1B939DED007BB5EEC07BE5
:10394000F1EE10FA05D5039B5A1C03922D221A7032
:1039500014E09DED007BB5EE407BF1EE10FA0DD149
:10396000039B5A1C039230221A70039B5A1C039229
:103970002E221A70039B30221A70BDE01B9B07EEAB
:10398000903AB8EEE77B9DED006B36EE477B8DED10
:10399000007B07E09DED007BB2EE046B27EE067B1B
:1039A0008DED007B9DF867305A1E8DF86720002B47
:1039B000F0D19DED007BFDEEC77B17EE903A1A9398
:1039C00000238DF867309DF867305A1C8DF867200A
:1039D00018461B994B4B83FB01239A10CB17D21A25
:1039E00013469B0013445B00CA1A830070336B4478
:1039F00043F83C2C1B9B434A82FB03129210DB17BB
:103A0000D31A1B931B9B002BDDD117E09DF8673069
:103A1000013B9B0070336B4453F83C3C002BB8BF18
:103A20005B42DBB23033D9B2039B5A1C03924AB2D9
:103A30001A709DF86730013B8DF867309DF867304C
:103A4000002BE3D19DF80B30002B55D000238DF8CF
:103A50006730039B5A1C03922E221A701A9B002B6C
:103A600027D1039B30221A7046E09DF867305A1C1C
:103A70008DF8672018461A99224B83FB01239A1070
:103A8000CB17D21A13469B0013445B00CA1A83005B
:103A900070336B4443F8602C1A9B1A4A82FB031262
:103AA0009210DB17D31A1A939DF80B30013B8DF857
:103AB0000B309DF80B30002BD7D117E09DF8673005
:103AC000013B9B0070336B4453F8603C002BB8BF44
:103AD0005B42DBB23033D9B2039B5A1C03924AB229
:103AE0001A709DF86730013B8DF867309DF867309C
:103AF000002BE3D100E000BF00BF1DB05DF804FB68
:103B00005892010867666666000000000000000029
:103B100000B587B00190019B002B05D1002240F237
:103B2000BD213A48FFF7D4FC0198FCF7B9FF059096
:103B30000023049300238DF80F3000238DF80E30FE
:103B4000019B002B5BD09DF80E30002B3DD0019BDC
:103B500093F90030602B0CDD019B93F90030662B4C
:103B600007DC019B93F90030DBB2573B8DF80F3037
:103B700022E0019B93F90030402B0CDD019B93F96F
:103B80000030462B07DC019B93F90030DBB2373B5A
:103B90008DF80F3010E0019B93F900302F2B2FDDB3
:103BA000019B93F90030392B2ADC019B93F90030FB
:103BB000DBB2303B8DF80F30049B1A019DF80F30BB
:103BC00003F00F031343049310E0019B93F90030BB
:103BD000302B0BD1019B013393F90030782B05D1A9
:103BE000019B0133019301238DF80E30019B0133BA
:103BF0000193059B5A1E0592002BA1D100E000BF46
:103C0000049B184607B05DF804FB00BF58920108FA
:103C100008B5174B5B68174A934227D0144B4FF4F3
:103C200080321A60134A124B5A60124B03F58033EC
:103C30000F4A93600E4B0022DA600F4B00221A707D
:103C40000B4B1B681A4600210A480DF0D9FB094AA4
:103C50004FF6F87313441A46054B1A61044B1B695F
:103C6000044A1A60024B1B69024A5A6000BF08BD31
:103C7000980F0024B00F0024AC0F002400000000B7
:103C800088B0019000230793002306930023059337
:103C9000002304930023039353E0019B0A2B28BFC6
:103CA0000A230793079B019AD31A0193284B1B6899
:103CB0005B6A0493264B1B685B6A0393049A039B1D
:103CC0009A42F3D1079B4FF47A7203FB02F2049BF2
:103CD00013440693069A13091E49A1FB0313DB093B
:103CE0004CF2503101FB03F3D31A0593184B1B68B8
:103CF0005B6A0493164B1B685B6A0393049A039BED
:103D00009A42F3D1069B4CF24F32934209D9049B5D
:103D100046F2A7129342E9D8049A059B9A42E5D944
:103D20000FE0059A4CF250339B1A642B05D8049B84
:103D300046F2A7129342D9D803E0049A059B9A420F
:103D4000D4D9019B002BA8D100BF00BF08B0704799
:103D5000D45E0124C55A7C0A000000000000000067
:103D600000B583B09523ADF806304CF24F33ADF873
:103D7000043019480BF0F4FA002117480BF000FB4F
:103D8000002115480BF014FB012113480BF028FB10
:103D9000002111480BF03CFB00210F480BF050FBB9
:103DA00001210D480BF064FB02210B480BF078FB5E
:103DB000BDF80630194608480BF09AFBBDF80430F0
:103DC000194605480BF084FB03480BF0B1FB00BF1C
:103DD00003B05DF804FB00BFD45E012400000000C6
:103DE00000B585B0034600918DF8073001238DF8AA
:103DF0000F300023ADF80C309DF8072039491346E9
:103E00005B0013449B000B4408331B68002B0BD151
:103E100000224921344804F05BFD0346002B03D007
:103E200021238DF80F3057E0009B002B0BD100228F
:103E300051212D4804F04CFD0346002B03D02423D0
:103E40008DF80F3048E09DF80720264913465B00A7
:103E500013449B000B4408331B68012B12D19DF8BF
:103E60000720204913465B0013449B000B441B684A
:103E70001B685B6A1BB2002B00DA03339B10ADF8A2
:103E80000C3022E09DF80720164913465B001344CE
:103E90009B000B441B681B685B6AADF80C309DF8F7
:103EA0000720104913465B0013449B000B44063364
:103EB0001B88184601F014F90346002B05D1BDF804
:103EC0000C305B429BB2ADF80C30009BBDF80C206F
:103ED0001A8000238DF80F309DF80F30184605B07A
:103EE0005DF804FB6C000024A092010800000000B3
:103EF00000B585B003468DF8073001238DF80F30EB
:103F00009DF80720154913465B0013449B000B44A2
:103F100008331B68002B0BD100227E21104804F0CF
:103F2000D7FC0346002B03D021238DF80F300EE081
:103F30009DF80720094913465B0013449B000B447E
:103F40001B681B6800225A6200238DF80F309DF811
:103F50000F30184605B05DF804FB00BF6C0000246C
:103F6000A092010800000000000000000000000016
:103F700000B587B00292019303468DF80F300B46CF
:103F80008DF80E3001238DF817309DF80F30042185
:103F9000184604F0ADFC0346002B0BD00022C521CF
:103FA000AC4804F095FC0346002B03D025238DF884
:103FB000173049E19DF80F20A74913465B001344D1
:103FC0009B000B4408331B68002B0BD00022CE2132
:103FD000A04804F07DFC0346002B03D020238DF87D
:103FE000173031E19DF80F20029B1B0C03F00F03EB
:103FF0009A420BD00022D521964804F069FC034672
:10400000002B03D022238DF817301DE19DF80F20DF
:10401000019B1B0C03F00F039A420BD00022DC2102
:104020008C4804F055FC0346002B03D023238DF865
:10403000173009E1029B9BB29DF80F20C3F30B03DD
:1040400098B2854913465B0013449B000B4404332C
:1040500002461A80019B9BB29DF80F20C3F30B030D
:1040600098B27D4913465B0013449B000B44063312
:1040700002461A809DF80F209DF80E1076481346D0
:104080005B0013449B000344083319609DF80F2024
:10409000714913465B0013449B000B441B680122CB
:1040A0009A609DF80F206C4913465B0013449B00F7
:1040B0000B441B684FF6FF72DA609DF80F206649CB
:1040C00013465B0013449B000B441A68137C43F0B7
:1040D000300313749DF80F205F4913465B001344AF
:1040E0009B000B4404331888029B1B0BDBB203F0CC
:1040F0000F03DBB21A46132101F0FAF89DF80E30D7
:10410000012B14D19DF80F20534913465B00134433
:104110009B000B4406331888019B1B0BDBB203F09A
:104120000F03DBB21A46132101F0E2F80EE09DF80E
:104130000F20494913465B0013449B000B44063390
:104140001B8801220121184601F052F89DF80F301A
:10415000184604F025FC9DF80F203F4913465B00EC
:1041600013449B000B441B681B6800229A629DF855
:104170000F20394913465B0013449B000B441B6816
:104180001B684FF6FF72DA629DF80F203249134622
:104190005B0013449B000B441B681B6800225A629F
:1041A0009DF80E30012B01D1032100E057219DF82D
:1041B0000F20294813465B0013449B0003441B68EF
:1041C0001B689960002304939DF80F202249134631
:1041D0005B0013449B000B441B681B689B690493A2
:1041E000049B43F001030493049B43F48073049302
:1041F0009DF80F20184913465B0013449B000B44A5
:104200001B681B68049A9A619DF80F201249134697
:104210005B0013449B000B441B681B68196A9DF8E4
:104220000F200D4813465B0013449B0003441B689A
:104230001B6841F011021A629DF80F30184604F015
:10424000C7FB00238DF817309DF81730184607B0CC
:104250005DF804FBA09201086C000024000000003F
:1042600082B00190009100BF02B0704700000000D2
:1042700000B583B01C4B1B68D3F888201A4B1B6811
:1042800042F00102C3F88820174B9B8840F6FF726A
:1042900093421FD000230193134B5B6A03F0030387
:1042A000032B0CD0032B0DD8012B02D0022B03D0F3
:1042B00008E00123019305E00223019302E00323B8
:1042C000019300BF094B1B68084A526811460198C8
:1042D000984702E0002008F013FEBFF34F8F00BFA5
:1042E00000BF03B05DF804FB34010024B4000024D7
:1042F00000B583B01D4B1B68D3F888201B4B1B688F
:1043000042F00202C3F88820184BDB8840F6FF72A7
:10431000934220D000230193144B5B6A9B0803F067
:104320000303032B0CD0032B0DD8012B02D0022B3F
:1043300003D008E00123019305E00223019302E08A
:104340000323019300BF0A4B9B68094AD2681146B8
:104350000198984702E0012008F0D2FDBFF34F8F8B
:1043600000BF00BF03B05DF804FB00BF34010024B0
:10437000B400002400000000000000000000000065
:1043800000B583B01D4B1B68D3F888201B4B1B68FE
:1043900042F00402C3F88820184B1B8940F6FF72D4
:1043A000934220D000230193144B5B6A1B0903F056
:1043B0000303032B0CD0032B0DD8012B02D0022BAF
:1043C00003D008E00123019305E00223019302E0FA
:1043D0000323019300BF0A4B1B69094A5269114626
:1043E0000198984702E0022008F08AFDBFF34F8F42
:1043F00000BF00BF03B05DF804FB00BF3401002420
:10440000B4000024000000000000000000000000D4
:1044100000B583B01D4B1B68D3F888201B4B1B686D
:1044200042F00802C3F88820184B5B8940F6FF72FF
:10443000934220D000230193144B5B6A9B0903F045
:104440000303032B0CD0032B0DD8012B02D0022B1E
:1044500003D008E00123019305E00223019302E069
:104460000323019300BF0A4B9B69094AD269114695
:104470000198984702E0032008F042FDBFF34F8FF8
:1044800000BF00BF03B05DF804FB00BF340100248F
:10449000B400002400000000000000000000000044
:1044A00000B583B01D4B1B68D3F888201B4B1B68DD
:1044B00042F01002C3F88820184B9B8940F6FF7227
:1044C000934220D000230193144B5B6A1B0A03F034
:1044D0000303032B0CD0032B0DD8012B02D0022B8E
:1044E00003D008E00123019305E00223019302E0D9
:1044F0000323019300BF0A4B1B6A094A526A114603
:104500000198984702E0042008F0FAFCBFF34F8FAF
:1045100000BF00BF03B05DF804FB00BF34010024FE
:10452000B4000024000000000000000000000000B3
:1045300000B587B09E4BD3F8883003F02003002BE2
:1045400036D09C4B1B68D3F888209A4B1B6842F0EE
:104550002002C3F88820974BDB8940F6FF72934214
:1045600020D000230593934B5B6A9B0A03F003035F
:10457000032B0CD0032B0DD8012B02D0022B03D020
:1045800008E00123059305E00223059302E00323DD
:10459000059300BF884B9B6A874AD26A11460598EB
:1045A000984702E0052008F0ABFCBFF34F8F00BF37
:1045B0007F4BD3F8883003F04003002B36D07D4B7F
:1045C0001B68D3F888207B4B1B6842F04002C3F87D
:1045D0008820784B1B8A40F6FF72934220D000233C
:1045E0000493744B5B6A1B0B03F00303032B0CD087
:1045F000032B0DD8012B02D0022B03D008E001239E
:10460000049305E00223049302E00323049300BF14
:10461000694B1B6B684A526B11460498984702E03D
:10462000052008F06DFCBFF34F8F00BF604BD3F83F
:10463000883003F08003002B36D05E4B1B68D3F824
:1046400088205C4B1B6842F08002C3F88820594BDD
:104650005B8A40F6FF72934220D000230393554BB0
:104660005B6A9B0B03F00303032B0CD0032B0DD8C9
:10467000012B02D0022B03D008E00123039305E0B5
:104680000223039302E00323039300BF4A4B9B6B77
:10469000494AD26B11460398984702E0052008F07A
:1046A0002FFCBFF34F8F00BF414BD3F8883003F48A
:1046B0008073002B36D03F4B1B68D3F888203D4BCE
:1046C0001B6842F48072C3F888203A4B9B8A40F6FC
:1046D000FF72934220D000230293364B5B6A1B0C7F
:1046E00003F00303032B0CD0032B0DD8012B02D0B6
:1046F000022B03D008E00123029305E0022302937A
:1047000002E00323029300BF2B4B1B6C2A4A526C1E
:1047100011460298984702E0052008F0F1FBBFF32C
:104720004F8F00BF224BD3F8883003F40073002B67
:1047300036D0204B1B68D3F888201E4B1B6842F4F0
:104740000072C3F888201B4BDB8A40F6FF7293424D
:1047500020D000230193174B5B6A9B0C03F00303EB
:10476000032B0CD0032B0DD8012B02D0022B03D02E
:1047700008E00123019305E00223019302E00323F3
:10478000019300BF0C4B9B6C0B4AD26C11460198F5
:10479000984702E0052008F0B3FBBFF34F8F00BF3E
:1047A000BFF34F8F00BF00BF07B05DF804FB00BF31
:1047B0000004004234010024B40000240000000082
:1047C00000B587B0974BD3F8883003F48063002B93
:1047D00036D0954B1B68D3F88820934B1B6842F466
:1047E0008062C3F88820904B1B8B40F6FF72934287
:1047F00020D0002305938C4B5B6A1B0D03F0030351
:10480000032B0CD0032B0DD8012B02D0022B03D08D
:1048100008E00123059305E00223059302E003234A
:10482000059300BF814B1B6D804A526D1146059860
:10483000984702E0062008F063FBBFF34F8F00BFEC
:10484000784BD3F8883003F40063002B36D0764BD6
:104850001B68D3F88820744B1B6842F40062C3F8CD
:104860008820714B5B8B40F6FF72934220D000236F
:1048700004936D4B5B6A9B0D03F00303032B0CD079
:10488000032B0DD8012B02D0022B03D008E001230B
:10489000049305E00223049302E00323049300BF82
:1048A000624B9B6D614AD26D11460498984702E0B5
:1048B000062008F025FBBFF34F8F00BF594BD3F8FC
:1048C000883003F48053002B36D0574B1B68D3F845
:1048D0008820554B1B6842F48052C3F88820524B05
:1048E0009B8B40F6FF72934220D0002303934E4BE4
:1048F0005B6A1B0E03F00303032B0CD0032B0DD8B4
:10490000012B02D0022B03D008E00123039305E022
:104910000223039302E00323039300BF434B1B6E68
:10492000424A526E11460398984702E0062008F06A
:10493000E7FABFF34F8F00BF3A4BD3F8883003F448
:104940000053002B36D0384B1B68D3F88820364BE9
:104950001B6842F40052C3F88820334BDB8B40F6CF
:10496000FF72934220D0002302932F4B5B6A9B0E71
:1049700003F00303032B0CD0032B0DD8012B02D023
:10498000022B03D008E00123029305E002230293E7
:1049900002E00323029300BF244B9B6E234AD26E96
:1049A00011460298984702E0062008F0A9FABFF3E2
:1049B0004F8F00BF1B4BD3F8883003F48043002B8C
:1049C0003CD0194B1B68D3F88820174B1B6842F466
:1049D0008042C3F88820144B1B8C40F6FF72934230
:1049E00026D000230193104B5B6A1B0F03F00303D7
:1049F000032B0CD0032B0DD8012B02D0022B03D09C
:104A000008E00123019305E00223019302E0032360
:104A1000019300BF054B1B6F044A526F114601986A
:104A2000984708E00004004234010024B400002448
:104A3000062008F065FABFF34F8F00BF214BD3F873
:104A4000883003F40043002B34D01F4B1B68D3F88D
:104A500088201D4B1B6842F40042C3F888201A4B83
:104A60005B8C40F6FF7293421ED000230093164BDE
:104A70005B6A9B0F032B0CD0032B0DD8012B02D0AC
:104A8000022B03D008E00123009305E002230093EA
:104A900002E00323009300BF0C4B9B6F0B4AD26FC5
:104AA00011460098984702E0062008F029FABFF363
:104AB0004F8F00BFBFF34F8F00BF00BF07B05DF83F
:104AC00004FB00BF0004004234010024B4000024B1
:104AD00008B509F0DDFD024809F0EAFD00BF08BD98
:104AE000D03F012400000000000000000000000092
:104AF00000B585B003460A46ADF8063013468DF87A
:104B00000530BDF806301B099BB28DF80F30BDF89B
:104B10000630DBB203F00F038DF80E309DF80F3036
:104B2000184608F0B5FA0290029B002B14D0029BA5
:104B30001A689DF80E305B00194603238B40DB4357
:104B40001A409DF8053003F003039DF80E1049004C
:104B50008B401A43029B1A6000BF05B05DF804FB4E
:104B600000B585B003460A46ADF8063013468DF809
:104B70000530BDF806301B099BB28DF80F30BDF82B
:104B80000630DBB203F00F038DF80E309DF80F30C6
:104B9000184608F07DFA0290029B002B13D0029B6E
:104BA0005A689DF80E30012101FA03F3DB431A40E5
:104BB0009DF8053003F001019DF80E3001FA03F372
:104BC0001A43029B5A6000BF05B05DF804FB00BFAA
:104BD00000B585B003460A46ADF8063013468DF899
:104BE0000530BDF806301B099BB28DF80F30BDF8BB
:104BF0000630DBB203F00F038DF80E309DF80F3056
:104C0000184608F045FA0290029B002B14D0029B34
:104C10009A689DF80E305B00194603238B40DB43F6
:104C20001A409DF8053003F003039DF80E1049006B
:104C30008B401A43029B9A6000BF05B05DF804FBED
:104C400000B585B003460A46ADF8063013468DF828
:104C50000530BDF806301B099BB28DF80F30BDF84A
:104C60000630DBB203F00F038DF80E309DF80F30E5
:104C7000184608F00DFA0290029B002B14D0029BFC
:104C8000DA689DF80E305B00194603238B40DB4346
:104C90001A409DF8053003F003039DF80E104900FB
:104CA0008B401A43029BDA6000BF05B05DF804FB3D
:104CB00000B585B003460A46ADF8063013468DF8B8
:104CC0000530BDF806301B099BB28DF80F30BDF8DA
:104CD0000630DBB203F00F038DF80E309DF80F3075
:104CE000184608F0D5F90290029B002B30D09DF8B1
:104CF0000E30072B15D8029B1A6A9DF80E309B00C8
:104D000019460F238B40DB431A409DF8053003F012
:104D10000F039DF80E1089008B401A43029B1A6204
:104D200016E0029B5A6A9DF80E30083B9B0019461C
:104D30000F238B40DB431A409DF8053003F00F032F
:104D40009DF80E10083989008B401A43029B5A6265
:104D500000BF05B05DF804FB00000000000000008B
:104D600000B585B003460A46ADF8063013468DF807
:104D70000530BDF806301B099BB28DF80F30BDF829
:104D80000630DBB203F00F038DF80E309DF80F30C4
:104D9000184608F07DF90290029B002B14D0029B6C
:104DA0009A6A9DF80E305B00194603238B40DB4363
:104DB0001A409DF8053003F003039DF80E104900DA
:104DC0008B401A43029B9A6200BF05B05DF804FB5A
:104DD00000B585B003460A46ADF8063013468DF897
:104DE0000530BDF806301B099BB28DF80F30BDF8B9
:104DF0000630DBB203F00F038DF80E309DF80F3054
:104E0000184608F045F90290029B002B13D0029B34
:104E1000DA6A9DF80E30012101FA03F3DB431A40F0
:104E20009DF8053003F001019DF80E3001FA03F3FF
:104E30001A43029BDA6200BF05B05DF804FB00BFB5
:104E400000B585B003460A46ADF8063013468DF826
:104E50000530BDF806301B099BB28DF80F30BDF848
:104E60000630DBB203F00F038DF80E309DF80F30E3
:104E7000184608F00DF90290029B002B13D0029BFC
:104E80001A6B9DF80E30012101FA03F3DB431A403F
:104E90009DF8053003F001019DF80E3001FA03F38F
:104EA0001A43029B1A6300BF05B05DF804FB00BF04
:104EB00000B585B003460A46ADF8063013468DF8B6
:104EC0000530BDF806301B099BB28DF80F30BDF8D8
:104ED0000630DBB203F00F038DF80E309DF80F3073
:104EE000184608F0D5F80290029B002B13D0029BC5
:104EF0005A6B9DF80E30012101FA03F3DB431A408F
:104F00009DF8053003F001019DF80E3001FA03F31E
:104F10001A43029B5A6300BF05B05DF804FB00BF53
:104F200000B583B003460091ADF80630009BDBB2BC
:104F300003F00303DAB2BDF8063011461846FFF756
:104F4000D7FD009B9B0803F00103DAB2BDF80630E1
:104F500011461846FFF704FE009BDB0803F003032D
:104F6000DAB2BDF8063011461846FFF731FE009B55
:104F70005B0903F00303DAB2BDF8063011461846A8
:104F8000FFF75EFE009BDB09DBB203F00F03DAB232
:104F9000BDF8063011461846FFF78AFE009BDB0A73
:104FA00003F00303DAB2BDF8063011461846FFF7E6
:104FB000D7FE009B5B0B03F00103DAB2BDF80630AD
:104FC00011461846FFF704FF009B9B0B03F00103FB
:104FD000DAB2BDF8063011461846FFF731FF009BE4
:104FE000DB0B03F00103DAB2BDF8063011461846B8
:104FF000FFF75EFF00BF03B05DF804FB0000000098
:1050000000B587B0059004910392049B0093059B23
:10501000039A00210220FDF7D3FDFEE70000000007
:1050200000B585B003460A46ADF8063013468DF844
:10503000053001238DF80F30BDF8063040F6FF72C1
:10504000934207D1002284212248FFF7D9FF03466B
:10505000002B38D1BDF806305B099BB28DF80E30BD
:10506000BDF80630DBB203F01F038DF80D309DF85C
:105070000530002B11D09DF80E30174A52F823301E
:1050800099699DF80D3001229A409DF80E30124822
:1050900050F823300A439A6111E09DF80E300E4A11
:1050A00052F8233099699DF80D304FF480329A40C0
:1050B0009DF80E30084850F823300A439A610023C7
:1050C0008DF80F3000E000BF9DF80F30184605B096
:1050D0005DF804FBD0920108109601080000000062
:1050E00000B585B00346ADF8063000238DF80F30CB
:1050F000BDF8063040F6FF72934207D10022A3218B
:105100001648FFF77DFF0346002B20D1BDF806307F
:105110005B099BB28DF80E30BDF80630DBB203F0B0
:105120001F038DF80D309DF80E300D4A52F82330D4
:105130001B699DF80D20012101FA02F21340002B9A
:1051400014BF01230023DBB28DF80F3000E000BF55
:105150009DF80F30184605B05DF804FBD0920108A9
:105160001096010800000000000000000000000090
:1051700000B585B00346ADF8063001238DF80F3039
:10518000BDF8063040F6FF72934207D10022FF219E
:105190001548FFF735FF0346002B1DD1BDF806303B
:1051A0005B101BB203F4FE631AB2BDF9063003F0C4
:1051B0001F031BB213431BB29BB242F23D011846C0
:1051C000FFF7AEFEBDF8063001211846FFF728FFB5
:1051D00000238DF80F3000E000BF9DF80F30184617
:1051E00005B05DF804FB00BFD0920108000000008C
:1051F00000B585B00346ADF806300B468DF8053096
:1052000013468DF8043001238DF80F30BDF80630B9
:1052100040F6FF72934208D100224FF48F7130485C
:10522000FFF7EEFE0346002B52D19DF805301B0917
:10523000DBB2002B19D0BDF806305B099BB2012B05
:1052400005D0BDF806305B099BB2022B0DD1BDF82D
:105250000630212B09D0BDF80630452B05D00022A1
:1052600040F229111E48FFF7CBFE9DF8053003F0F0
:105270000F029DF805301B09DBB29B001344194A4D
:1052800052F823300293BDF806305B101BB203F4D2
:10529000FE631AB2BDF9063003F01F031BB21343BD
:1052A0001BB29BB202991846FFF73AFE9DF80530F3
:1052B0001B09DBB2002B07D09DF80420BDF8063097
:1052C00011461846FFF7ACFE00238DF80F3000E0C2
:1052D00000BF9DF80F30184605B05DF804FB00BF15
:1052E000D0920108F09501080000000000000000C5
:1052F00000B585B00346ADF806300B468DF8053095
:1053000013468DF8043001238DF80F30BDF80630B8
:1053100040F6FF72934208D1002240F24D112C4812
:10532000FFF76EFE0346002B4AD19DF805301B099E
:10533000DBB2002B19D0BDF806305B099BB2012B04
:1053400005D0BDF806305B099BB2022B0DD1BDF82C
:105350000630212B09D0BDF80630452B05D00022A0
:105360004FF4AC711A48FFF74BFE9DF8053003F07F
:105370000F029DF805301B09DBB29B001344154A50
:1053800052F8233002939DF80430DB01029A134354
:105390000293BDF806305B101BB203F4FE631AB231
:1053A000BDF9063003F01F031BB213431BB29BB2BF
:1053B00002991846FFF7B4FD00238DF80F3000E086
:1053C00000BF9DF80F30184605B05DF804FB00BF24
:1053D000D0920108F09501080000000000000000D4
:1053E00084B00190019B03F0070303930A4BDB6831
:1053F0000293029A4FF6FF0313400293039B1A0293
:10540000029B1A43054B13430293034A029BD3604A
:1054100000BF04B0704700BF00ED00E00000FA05D7
:1054200082B00346ADF80630BDF90630002B0CDB28
:10543000BDF8063003F01F020549BDF906305B09CF
:10544000012000FA02F241F8232000BF02B07047A9
:1054500000E100E00000000000000000000000008B
:1054600082B00346ADF80630BDF90630002B13DBE1
:10547000BDF8063003F01F020949BDF906305B098B
:10548000012000FA02F2203341F82320BFF34F8FAE
:1054900000BFBFF36F8F00BF00BF02B0704700BFF7
:1054A00000E100E00000000000000000000000003B
:1054B00072B600BF704700BF00000000000000008F
:1054C00000B583B003468DF807309DF807301BB256
:1054D0001846FFF7A5FF00BF03B05DF804FB00BF4F
:1054E00000B583B003468DF807309DF807301BB236
:1054F0001846FFF7B5FF00BF03B05DF804FB00BF1F
:1055000008B50320FFF76CFF00BF08BD00000000D6
:1055100008B50D4B5B68002B0DD00C4B1B690B4A7B
:1055200023F0010313610A4B1B68094A52681146B4
:105530000020984702E0074809F0A2FDBFF34F8F13
:1055400000BF00BF08BD00BF5C010024002C00426A
:10555000AC0100242C5701240000000000000000D2
:1055600008B50D4BDB68002B0DD00C4B1B690B4AAB
:1055700023F0010313610A4B9B68094AD268114664
:105580000020984702E0074809F07AFDBFF34F8FEB
:1055900000BF00BF08BD00BF5C0100240030004216
:1055A000AC010024885C0124000000000000000021
:1055B00008B50D4B5B69002B0DD00C4B1B690B4ADA
:1055C00023F0010313610A4B1B69094A5269114612
:1055D0000020984702E0074809F052FDBFF34F8FC3
:1055E00000BF00BF08BD00BF5C010024003C0040BC
:1055F000AC010024F057012400000000000000006E
:1056000008B50D4BDB69002B0DD00C4B1B690B4A09
:1056100023F0010313610A4B9B69094AD2691146C1
:105620000020984702E0074809F02AFDBFF34F8F9A
:1056300000BF00BF08BD00BF5C0100240040004265
:10564000AC0100243C5A01240000000000000000CE
:1056500008B50E4B5B6A002B0FD04FF040231B693F
:105660004FF0402223F001031361094B1B6A084AE3
:10567000526A11460020984702E0064809F000FDF2
:10568000BFF34F8F00BF00BF08BD00BF5C01002407
:10569000AC010024B4580124000000000000000008
:1056A00008B50D4BDB6A002B0DD00C4B1B690B4A68
:1056B00023F0010313610A4B9B6A094AD26A11461F
:1056C0000020984702E0074809F0DAFCBFF34F8F4B
:1056D00000BF00BF08BD00BF5C010024003C0042C9
:1056E000AC010024785901240000000000000000F3
:1056F00008B50D4B5B6B002B0DD00C4B1B690B4A97
:1057000023F0010313610A4B1B6B094A526B1146CC
:105710000020984702E0074809F0B2FCBFF34F8F22
:1057200000BF00BF08BD00BF5C0100240044004270
:10573000AC0100244C5D01240000000000000000CA
:1057400008B50D4BDB6B002B0DD00C4B1B690B4AC6
:1057500023F0010313610A4B9B6B094AD26B11467C
:105760000020984702E0074809F08AFCBFF34F8FFA
:1057700000BF00BF08BD00BF5C010024004800421C
:10578000AC010024105E01240000000000000000B5
:1057900008B50D4B5B6C002B0DD00C4B1B690B4AF5
:1057A00023F0010313610A4B1B6C094A526C11462A
:1057B0000020984702E0074809F062FCBFF34F8FD2
:1057C00000BF00BF08BD00BF5C01002400440040D2
:1057D000AC010024005B0124000000000000000078
:1057E00008B50D4BDB6C002B0DD00C4B1B690B4A25
:1057F00023F0010313610A4B9B6C094AD26C1146DA
:105800000020984702E0074809F03AFCBFF34F8FA9
:1058100000BF00BF08BD00BF5C010024004800407D
:10582000AC010024C45B0124000000000000000063
:1058300082B00190009100BF02B0704700000000EC
:1058400000B587B00346029101928DF80F30002316
:105850008DF81730029B002B0CD1002240F267110B
:10586000144803F035F80346002B03D023238DF8AA
:10587000173019E09DF80F30184600F059F89DF8E0
:105880000F300D49029A41F833209DF80F300A4A33
:10589000DB001344019A5A609DF80F30184600F05F
:1058A0000FF800238DF817309DF81730184607B011
:1058B0005DF804FB00930108AC0100240000000027
:1058C00000B585B003468DF8073000238DF80F3002
:1058D0009DF80730124ADB0013445B68002B0CD1A3
:1058E00000224FF4CB710F4802F0F2FF0346002B69
:1058F00003D021238DF80F300CE09DF807301846B7
:1059000003F0F6F89DF80730184603F061F800231D
:105910008DF80F309DF80F30184605B05DF804FB88
:105920005C0100240093010800000000000000005A
:1059300000B585B003468DF8073000238DF80F3091
:105940009DF80730104ADB0013445B68002B0CD134
:10595000002240F2B5110D4802F0BAFF0346002BB9
:1059600003D021238DF80F3007E09DF8073018464B
:1059700003F076F800238DF80F309DF80F301846AD
:1059800005B05DF804FB00BF5C0100240093010832
:1059900000B587B002910192009303468DF80F3055
:1059A00000238DF817309DF80F300221184602F0C1
:1059B0009FFF0346002B0CD0002240F2F5114F4808
:1059C00002F086FF0346002B03D024238DF8173006
:1059D0008EE09DF80F304A4ADB0013445B68002BD1
:1059E0000CD000224FF4FF71444802F071FF0346CF
:1059F000002B03D020238DF8173079E0029B002B79
:105A00000CD1002240F205213C4802F061FF034620
:105A1000002B03D022238DF8173069E09DF80F305A
:105A2000184602F0BDFF029BDB0BADF81430BDF849
:105A3000143001331A46029BB3FBF2F3ADF8123077
:105A40009DF80F302E4A52F833301B68BDF81420F1
:105A50009A629DF80F302A4A52F833301B68BDF81D
:105A60001220DA629DF80F30254ADB001344029AB7
:105A70005A60BDF81430591C9DF80F30204A52F876
:105A800033300A469A609DF80F301D4A52F8333081
:105A90004FF6FF72DA609DF80F30194A52F8332042
:105AA000137C43F0300313749DF80F30144A52F8FE
:105AB00033301B680122DA609DF80F30104A52F82B
:105AC00033301B6800225A629DF80F300D4AD35CB8
:105AD0001846FFF7F5FC9DF80F30009A019918461B
:105AE000FFF7AEFE03468DF8173000238DF8173010
:105AF0009DF81730184607B05DF804FB00930108C5
:105B00005C01002440960108000000000000000035
